:020000040800F2
:10000000F006002089010008C5010008C7010008AA
:10001000C9010008CB010008CD0100080000000064
:10002000000000000000000000000000CF010008F8
:10003000D101000800000000D3010008D50100082C
:10004000D7010008D7010008D7010008D701000830
:10005000D7010008D7010008D7010008D701000820
:10006000D7010008D7010008D7010008D701000810
:10007000D7010008D7010008D7010008D701000800
:10008000D7010008D7010008D7010008D7010008F0
:10009000D7010008D7010008D7010008D7010008E0
:1000A000D7010008D7010008D7010008D7010008D0
:1000B000D7010008D7010008D7010008D7010008C0
:1000C000D7010008D7010008D7010008D7010008B0
:1000D000D7010008D7010008D7010008D7010008A0
:1000E000B5090008D7010008D7010008D7010008AA
:1000F000D7010008D7010008D7010008D701000880
:10010000D7010008D7010008D7010008D70100086F
:10011000D7010008D7010008D7010008D70100085F
:10012000D7010008D7010008D7010008D70100084F
:10013000D7010008D7010008D7010008D70100083F
:10014000D7010008D7010008D7010008D70100082F
:10015000D7010008D7010008D7010008D70100081F
:10016000D7010008D7010008D7010008D70100080F
:10017000D7010008D7010008D701000800000000DF
:10018000D7010008D701000816481749174B9942B4
:100190003CBF50F8042B41F8042BF8D314494FF01E
:1001A00000028B4238BF43F8042BFAD3DFF8440037
:1001B000016841F470010160BFF34F8FBFF36F8F8F
:1001C0000D480047FEE7FEE7FEE7FEE7FEE7FEE735
:1001D000FEE7FEE7FEE7FEE708480949094A0A4B41
:1001E00070470000DC0A000800000020F00000203A
:1001F000F006002088ED00E049040008F00000202F
:10020000F0060020F0020020F00200207047704746
:100210007047000042F20001C4F20201086820F0B9
:10022000070008600A6841F2000042F00202C4F2CE
:1002300002000A60016841F48071016001684905AB
:10024000FCD5416821F0F8514160416841F080518E
:100250004160016821F08071016000BF016889017F
:10026000FCD4C168142221F00301C160C16841F0CF
:100270000201C160C16862F30E21C160C168012240
:1002800062F30611C160C16821F0C061C160C1683C
:1002900041F08071C160016841F08071016000BF70
:1002A00001688901FCD5816821F0030181608168C2
:1002B00041F00301816000BF816801F00C010C294D
:1002C000FAD1816821F0F0018160816821F4E06158
:1002D0008160816821F460518160016821F0806152
:1002E000016000BF01684901FCD4016921F4FE41AD
:1002F0000161016941F4C0510161016941F40031BA
:100300000161016941F480310161016841F080615E
:10031000016000BF01684901FCD5D0F8881021F4C4
:100320004001C0F88810016E41F400110166704769
:1003300041F28800C4F2020050F8301C41F4003150
:1003400040F8301C016821F00C010160016841F0A7
:100350000401016050F83C1C41F0010140F83C1CD4
:100360004FF09040016821F0F0010160016841F018
:10037000A00101602021C4F60001086820F47F403C
:100380000860086840F4EE40086051F8180C40F02E
:10039000F00041F8180C51F8140C20F0F00041F86E
:1003A000140C51F81C2C44F2004022F00C02C4F250
:1003B000000041F81C2C016821F001010160016876
:1003C00021F010210160016821F4004101604168C1
:1003D00021F44051416042F28D01C160016841F059
:1003E0000C010160016A41F04001016243F608011D
:1003F000C4F201010A6842F0C0020A60016841F0DB
:1004000001010160C1698902FCD500BFC1694902CF
:10041000FCD5704744F21C42C4F2000261B14FF0B7
:10042000000C00BF13681B06FCD510F80C300CF153
:10043000010C8C459381F5D110684006FCD51068FD
:1004400020F0400010607047FFF7E4FEFFF770FFF8
:100450002E48C16C41F00701C1642D48016821F0AC
:10046000FC0101602A48C16821F0FC01C1602948F3
:10047000016821F0406101602648C16821F04061B7
:10048000C1604FF090400168234A21EA0201234AEB
:1004900041EA020101604FF09040416821F472612D
:1004A00041604FF09040C1681B4A21EA0201C160DF
:1004B0001848016801F07F41194A41EA02010160D0
:1004C0001448416840F6FF7221EA020141F00F0131
:1004D00041601048C16821F0FF0141F05501C16041
:1004E0000A48016E41F0010101660E48016821F0E1
:1004F000F00141F0200101600B48016841F4005116
:1005000001600948816841F4005181600010024097
:100510000004004800080048000CFF0000045500DB
:100520005555550014000140000401405A484FF44D
:10053000807101604FF0000B00F0B9FA4FF000033A
:1005400000F02EF84FF0420900F056F900F0F5F9EE
:100550004FF4C06300F024F84FF0430900F055F960
:1005600000F0EBF94FF4406300F01AF84FF0420945
:1005700000F042F900F0E1F94FF4C06300F010F828
:100580004FF0410900F02FF900F0D7F94FF00003C8
:1005900000F006F84FF0420900F02EF9D6E7FEE72A
:1005A00000B52DE9F00300F069F8BAEB030743D07A
:1005B000B946B9F1000F01DAC9F100094FF005029F
:1005C00097FBF2F703EB07054FF0040207FB02F776
:1005D0001F44324E49F6AA24A6EB04024FF005014F
:1005E00099FBF1F992FBF9F9DFF8B480B6EB090653
:1005F00000DD00DC264600F0A7F9BA4502D018DC81
:1006000014DBF1E7DFF89C80264600F09DF9AA454F
:1006100002D00EDC0ADBF5E7DFF88C804E4400F0F8
:1006200093F99A4508D004DC00DBF5E700F03EF8CA
:10063000404700F05FF8404700F012F8BDE8F003D3
:10064000B3F5C06FB8BF4FF0410808BF4FF0420884
:10065000C8BF4FF0430800F009FA5DF804EB70479B
:1006600000B500F0B8F8BBF1800F02D000F066F8DA
:10067000F7E700F010FA5DF804EB704700B500F002
:10068000A5F8BBF1000F02D000F07CF8F7E700F00E
:100690000EFA5DF804EB704704E100E0FFFF0E0086
:1006A000E90500080506000819060008B94841696F
:1006B00000B521F0F00141F09001416100F08BF8AC
:1006C00021F0F00141F05001416100F084F821F087
:1006D000F00141F06001416100F07DF821F0F0018E
:1006E00041F0A001416100F076F80AF1010A5DF8DD
:1006F00004EB7047A748416900B521F0F00141F0D3
:10070000A001416100F062F821F0F00141F06001C8
:10071000416100F05BF821F0F00141F050014161CE
:1007200000F054F821F0F00141F09001416100F037
:100730004DF8AAF1010A5DF804EB7047954841694C
:1007400000B521F4706141F41061416100F043F89B
:1007500021F4706141F4A061416100F03CF821F4A2
:10076000706141F4C061416100F035F821F47061BD
:1007700041F42061416100F02EF80BF1010B5DF8AE
:1007800004EB70478348416900B521F4706141F47E
:100790002061416100F01AF821F4706141F4C061F8
:1007A000416100F013F821F4706141F4A0614161EE
:1007B00000F00CF821F4706141F41061416100F027
:1007C00005F8ABF1010B5DF804EB70474BF668726E
:1007D000013AFDD1704700B54BF66872013AFDD180
:1007E0005DF804EB70474FF09040416921F470616F
:1007F00041F48071416170474FF09040416921F4AC
:10080000706141F40071416170474FF0904041695F
:1008100021F4706141F44071416170472DE9684FE6
:100820005C48416921F00F01416100F07EF800F061
:100830007CF800F08FF80E28F2D0054606F000068E
:100840004FF00806002E07D0304600F08CF8012843
:1008500002D04FEA5606F5D100F067F800F07AF8BA
:10086000A84200D1F8E785F00E05012E05D0022E32
:1008700012D0042E1FD0082E2CD0082D04BF3325F3
:10088000032236D0042D04BF3225022231D0022D9E
:1008900004BF312501222CD0082D04BF36250622A5
:1008A00027D0042D04BF3525052222D0022D04BFF8
:1008B000342504221DD0082D04BF3925092218D063
:1008C000042D04BF3825082213D0022D04BF37257C
:1008D00007220ED0082D04BF23250B2209D0042D9A
:1008E00004BF3025002204D0022D04BF2A250A228D
:1008F000FFD00A2A04BF28482A21012A04BF27481A
:100900001F21022A04BF26481F21032A04BF2548AD
:100910001F21042A04BF2448222104B4FFF77AFDD2
:1009200004BCBDE8684F1046704700B549F6AA22DE
:10093000013AFDD15DF804EB704700B51B4A013A5E
:10094000FDD15DF804EB704740B5013EFDD1BDE837
:100950004040704700B516490A6902F00E02104681
:100960005DF804EB704700B50A494A6922F00F02AE
:1009700080F00F0042EA00024A61FFF7D6FFFFF75E
:10098000E9FF03460E2B0CBF002001205DF804EBAD
:100990007047000000080048A20000204500002029
:1009A0006400002083000020CC000020323333019B
:1009B000000400482DE9F0424248416901F4005129
:1009C000B1F5005F48D13F484FF4005141614FF00D
:1009D00090414A6904B4FFF721FF012808BF0023B2
:1009E00012D01DD0022808BF4FF4C0630FD017D01B
:1009F000032808BF4FF440630CD011D0042808BF6F
:100A000000230AD026D026D1FFF7EDFEE9E7FFF755
:100A1000F3FEECE7FFF7F9FEEFE7FFF7E4FEF1E79F
:100A2000FFF7BEFDFFF789FFFFF728FE04BCB2F514
:100A3000807F06D0B2F5007F06D0B2F5407F06D0A9
:100A40000AD1FFF7D0FE07E0FFF7D6FE04E0FFF77C
:100A5000DCFE01E01C4904BCDFF87080BDE8F04218
:100A6000194B994200D0704706917047B8F1410F79
:100A700004BF17481721B8F1420F04BF15481721CA
:100A8000B8F1430F04BF1448172100B5FFF7C2FCAB
:100A90005DF804EB704700B54FF09040416921F0DC
:100AA000200141F0200141615DF804EB704700B581
:100AB0004FF09040416921F0200141615DF804EB65
:100AC000704700000004014039050008AB0500082C
:100AD00000000020170000202E0000200000000071
:100AE000417272697665642061742053746174691F
:100AF0006F6E20310D0A0041727269766564206163
:100B0000742053746174696F6E20320D0A00417253
:100B100072697665642061742053746174696F6EC4
:100B200020330D0A004D616E75616C206F76657221
:100B30007269646520746F2073746174696F6E20CC
:100B4000310D0A004D616E75616C206F76657272B1
:100B500069646520746F2073746174696F6E2032EC
:100B60000D0A004D616E75616C206F766572726959
:100B7000646520746F2073746174696F6E20330D27
:100B80000A00414C45525421212120454D455247F0
:100B9000454E4359205357495443482042555454D5
:100BA0004F4E205055534845440D0A004D616E7517
:100BB000616C206F76657272696465207265736519
:100BC00074207472696767657265640D0A000000BD
:0400000508000449A2
:00000001FF
