:020000040800F2
:100000000806002089010008C5010008C701000892
:10001000C9010008CB010008CD0100080000000064
:10002000000000000000000000000000CF010008F8
:10003000D101000800000000D3010008D50100082C
:10004000D7010008D7010008D7010008D701000830
:10005000D7010008D7010008D7010008D701000820
:10006000D7010008D7010008D7010008D701000810
:10007000D7010008D7010008D7010008D701000800
:10008000D7010008D7010008D7010008D7010008F0
:10009000D7010008D7010008D7010008D7010008E0
:1000A000D7010008D7010008D7010008D7010008D0
:1000B000D7010008D7010008D7010008D7010008C0
:1000C000D7010008D7010008D7010008D7010008B0
:1000D000D7010008D7010008D7010008D7010008A0
:1000E000D7010008D7010008D7010008D701000890
:1000F000D7010008D7010008D7010008D701000880
:10010000D7010008D7010008D7010008D70100086F
:10011000D7010008D7010008D7010008D70100085F
:10012000D7010008D7010008D7010008D70100084F
:10013000D7010008D7010008D7010008D70100083F
:10014000D7010008D7010008D7010008D70100082F
:10015000D7010008D7010008D7010008D70100081F
:10016000D7010008D7010008D7010008D70100080F
:10017000D7010008D7010008D701000800000000DF
:10018000D7010008D701000816481749174B9942B4
:100190003CBF50F8042B41F8042BF8D314494FF01E
:1001A00000028B4238BF43F8042BFAD3DFF8440037
:1001B000016841F470010160BFF34F8FBFF36F8F8F
:1001C0000D480047FEE7FEE7FEE7FEE7FEE7FEE735
:1001D000FEE7FEE7FEE7FEE708480949094A0A4B41
:1001E00070470000C0080008000000200800002040
:1001F0000806002088ED00E04904000808000020FF
:1002000008060020080200200802002070477047FE
:100210007047000042F20001C4F20201086820F0B9
:10022000070008600A6841F2000042F00202C4F2CE
:1002300002000A60016841F48071016001684905AB
:10024000FCD5416821F0F8514160416841F080518E
:100250004160016821F08071016000BF016889017F
:10026000FCD4C168142221F00301C160C16841F0CF
:100270000201C160C16862F30E21C160C168012240
:1002800062F30611C160C16821F0C061C160C1683C
:1002900041F08071C160016841F08071016000BF70
:1002A00001688901FCD5816821F0030181608168C2
:1002B00041F00301816000BF816801F00C010C294D
:1002C000FAD1816821F0F0018160816821F4E06158
:1002D0008160816821F460518160016821F0806152
:1002E000016000BF01684901FCD4016921F4FE41AD
:1002F0000161016941F4C0510161016941F40031BA
:100300000161016941F480310161016841F080615E
:10031000016000BF01684901FCD5D0F8881021F4C4
:100320004001C0F88810016E41F400110166704769
:1003300041F28800C4F2020050F8301C41F4003150
:1003400040F8301C016821F00C010160016841F0A7
:100350000401016050F83C1C41F0010140F83C1CD4
:100360004FF09040016821F0F0010160016841F018
:10037000A00101602021C4F60001086820F47F403C
:100380000860086840F4EE40086051F8180C40F02E
:10039000F00041F8180C51F8140C20F0F00041F86E
:1003A000140C51F81C2C44F2004022F00C02C4F250
:1003B000000041F81C2C016821F001010160016876
:1003C00021F010210160016821F4004101604168C1
:1003D00021F44051416042F28D01C160016841F059
:1003E0000C010160016A41F04001016243F608011D
:1003F000C4F201010A6842F0C0020A60016841F0DB
:1004000001010160C1698902FCD500BFC1694902CF
:10041000FCD5704744F21C42C4F2000261B14FF0B7
:10042000000C00BF13681B06FCD510F80C300CF153
:10043000010C8C459381F5D110684006FCD51068FD
:1004400020F0400010607047FFF7E4FEFFF770FFF8
:100450003048C16C41F00701C1642F48016821F0A8
:10046000FC0101602C48C16821F0FC01C1602B48EF
:10047000016821F0406101602848C16821F04061B5
:10048000C1604FF090400168254A21EA0201254AE7
:1004900041EA020101604FF09040416821F472612D
:1004A00041604FF09040C1681D4A21EA0201C160DD
:1004B0001A48016801F07F411B4A41EA02010160CC
:1004C0001648416840F6FF7221EA020141F00F012F
:1004D00041601248C16821F0FF0141F05501C1603F
:1004E0000C48016E41F0010101661048016821F0DD
:1004F000F00141F0200101600D48016841F4005114
:1005000001600B48816841F40051816009484FF453
:10051000807101600010024000040048000800489B
:10052000000CFF0000045500555555001400014013
:100530000004014004E100E04FF0000B4FF0000325
:1005400000F01CF84FF042094FF4C06300F016F8B9
:100550004FF043094FF4406300F010F84FF04209A8
:100560004FF4C06300F00AF84FF041094FF0000368
:1005700000F004F84FF04209E6E7FEE700B500F0AE
:100580001AF89A4508D004DC00DBFAE700F01DF801
:10059000F7E700F03EF8F4E700F003F85DF804EB4D
:1005A000704700B5BBF1800F02D000F056F8F9E7B4
:1005B0005DF804EB704700B5BBF1000F02D000F00E
:1005C00070F8F9E75DF804EB7047B948416900B588
:1005D00021F0F00141F09001416100F086F821F036
:1005E000F00141F05001416100F07FF821F0F0018D
:1005F00041F06001416100F078F821F0F00141F034
:10060000A001416100F071F80AF1010A5DF804EB04
:100610007047A748416900B521F0F00141F0A00101
:10062000416100F062F821F0F00141F060014161A8
:1006300000F05BF821F0F00141F05001416100F061
:1006400054F821F0F00141F09001416100F04DF8C3
:10065000AAF1010A5DF804EB70479548416900B5BD
:1006600021F4706141F41061416100F03EF821F421
:10067000706141F4A061416100F037F821F47061CC
:1006800041F4C061416100F030F821F4706141F43F
:100690002061416100F029F80BF1010B5DF804EBDA
:1006A00070478348416900B521F4706141F42061CD
:1006B000416100F01AF821F4706141F4C0614161B8
:1006C00000F013F821F4706141F4A061416100F081
:1006D0000CF821F4706141F41061416100F005F8FB
:1006E000ABF1010B5DF804EB704749F6AA22013A21
:1006F000FDD170474FF09040416921F4706141F4A1
:100700002061416170474FF09040416921F4706170
:1007100041F43061416170474FF09040416921F4EC
:10072000706141F44061416170472DE9684F604854
:10073000416921F00F01416100F06EF800F06CF8A2
:1007400000F072F80E28F2D0054606F000064FF0D1
:100750000806002E07D0304600F06FF8012802D0BE
:100760004FEA5606F5D100F057F800F05DF8A842C0
:1007700000D1F8E785F00E05012E05D0022E12D02B
:10078000042E1FD0082E2CD0082D04BF33250322A1
:1007900036D0042D04BF3225022231D0022D04BFF1
:1007A000312501222CD0082D04BF3625062227D062
:1007B000042D04BF3525052222D0022D04BF342587
:1007C00004221DD0082D04BF3925092218D0042D7C
:1007D00004BF3825082213D0022D04BF3725072275
:1007E0000ED0082D04BF23250B2209D0042D04BFF1
:1007F0003025002204D0022D04BF2A250A22FFD072
:1008000004B42C4805604FF00101FFF703FE04BC5F
:10081000BDE8684F1046704700B549F69912013A95
:10082000FDD15DF804EB704700B523490A6902F079
:100830000E0210465DF804EB704700B51C494A698A
:1008400022F00F0280F00F0042EA00024A61FFF737
:10085000E3FFFFF7E9FF03460E2B0CBF002001204A
:100860005DF804EB704700B51448416901F400518C
:10087000B1F5005F18D111484FF400514161FFF705
:1008800054FF012808BF00230AD0022808BF4FF4F4
:10089000C06305D0032808BF4FF4406300D002D1E5
:1008A000FFF76CFE00E00B285DF804EB70470000DA
:1008B0000008004800000020000400480004014037
:0808C0002B0000000000000005
:0400000508000449A2
:00000001FF
