:020000040800F2
:10000000C806002089010008C5010008C7010008D2
:10001000C9010008CB010008CD0100080000000064
:10002000000000000000000000000000CF010008F8
:10003000D101000800000000D3010008D50100082C
:10004000D7010008D7010008D7010008D701000830
:10005000D7010008D7010008D7010008D701000820
:10006000D7010008D7010008D7010008D701000810
:10007000D7010008D7010008D7010008D701000800
:10008000D7010008D7010008D7010008D7010008F0
:10009000D7010008D7010008D7010008D7010008E0
:1000A000D7010008D7010008D7010008D7010008D0
:1000B000D7010008D7010008D7010008D7010008C0
:1000C000D7010008D7010008D7010008D7010008B0
:1000D000D7010008D7010008D7010008D7010008A0
:1000E00029090008D7010008D7010008D701000836
:1000F000D7010008D7010008D7010008D701000880
:10010000D7010008D7010008D7010008D70100086F
:10011000D7010008D7010008D7010008D70100085F
:10012000D7010008D7010008D7010008D70100084F
:10013000D7010008D7010008D7010008D70100083F
:10014000D7010008D7010008D7010008D70100082F
:10015000D7010008D7010008D7010008D70100081F
:10016000D7010008D7010008D7010008D70100080F
:10017000D7010008D7010008D701000800000000DF
:10018000D7010008D701000816481749174B9942B4
:100190003CBF50F8042B41F8042BF8D314494FF01E
:1001A00000028B4238BF43F8042BFAD3DFF8440037
:1001B000016841F470010160BFF34F8FBFF36F8F8F
:1001C0000D480047FEE7FEE7FEE7FEE7FEE7FEE735
:1001D000FEE7FEE7FEE7FEE708480949094A0A4B41
:1001E00070470000F809000800000020C800002047
:1001F000C806002088ED00E049040008C80000207F
:10020000C8060020C8020020C802002070477047BE
:100210007047000042F20001C4F20201086820F0B9
:10022000070008600A6841F2000042F00202C4F2CE
:1002300002000A60016841F48071016001684905AB
:10024000FCD5416821F0F8514160416841F080518E
:100250004160016821F08071016000BF016889017F
:10026000FCD4C168142221F00301C160C16841F0CF
:100270000201C160C16862F30E21C160C168012240
:1002800062F30611C160C16821F0C061C160C1683C
:1002900041F08071C160016841F08071016000BF70
:1002A00001688901FCD5816821F0030181608168C2
:1002B00041F00301816000BF816801F00C010C294D
:1002C000FAD1816821F0F0018160816821F4E06158
:1002D0008160816821F460518160016821F0806152
:1002E000016000BF01684901FCD4016921F4FE41AD
:1002F0000161016941F4C0510161016941F40031BA
:100300000161016941F480310161016841F080615E
:10031000016000BF01684901FCD5D0F8881021F4C4
:100320004001C0F88810016E41F400110166704769
:1003300041F28800C4F2020050F8301C41F4003150
:1003400040F8301C016821F00C010160016841F0A7
:100350000401016050F83C1C41F0010140F83C1CD4
:100360004FF09040016821F0F0010160016841F018
:10037000A00101602021C4F60001086820F47F403C
:100380000860086840F4EE40086051F8180C40F02E
:10039000F00041F8180C51F8140C20F0F00041F86E
:1003A000140C51F81C2C44F2004022F00C02C4F250
:1003B000000041F81C2C016821F001010160016876
:1003C00021F010210160016821F4004101604168C1
:1003D00021F44051416042F28D01C160016841F059
:1003E0000C010160016A41F04001016243F608011D
:1003F000C4F201010A6842F0C0020A60016841F0DB
:1004000001010160C1698902FCD500BFC1694902CF
:10041000FCD5704744F21C42C4F2000261B14FF0B7
:10042000000C00BF13681B06FCD510F80C300CF153
:10043000010C8C459381F5D110684006FCD51068FD
:1004400020F0400010607047FFF7E4FEFFF770FFF8
:100450002E48C16C41F00701C1642D48016821F0AC
:10046000FC0101602A48C16821F0FC01C1602948F3
:10047000016821F0406101602648C16821F04061B7
:10048000C1604FF090400168234A21EA0201234AEB
:1004900041EA020101604FF09040416821F472612D
:1004A00041604FF09040C1681B4A21EA0201C160DF
:1004B0001848016801F07F41194A41EA02010160D0
:1004C0001448416840F6FF7221EA020141F00F0131
:1004D00041601048C16821F0FF0141F05501C16041
:1004E0000A48016E41F0010101660E48016821F0E1
:1004F000F00141F0200101600B48016841F4005116
:1005000001600948816841F4005181600010024097
:100510000004004800080048000CFF0000045500DB
:10052000555555001400014000040140F3484FF4B4
:10053000807101604FF0000B4FF0000300F038F8BD
:100540004FF0420900F007F900F039FA00F0AFF976
:100550004FF4C06300F02CF84FF0430900F004F9A9
:1005600000F02DFA00F0A3F94FF4406300F020F8FA
:100570004FF0420900F0EFF800F021FA00F097F98F
:100580004FF4C06300F014F84FF0410900F0DAF8BE
:1005900000F015FA00F08BF94FF0000300F008F8B6
:1005A0004FF0420900F0D7F800F009FACEE7FEE775
:1005B00000B500F01EF800F0BDF89A4508D004DC44
:1005C00000DBF8E700F021F8F5E700F042F8F2E789
:1005D00000F003F85DF804EB704700B500F0AAF8EE
:1005E000BBF1800F02D000F058F8F7E75DF804EB9C
:1005F000704700B500F099F8BBF1000F02D000F091
:1006000070F8F7E75DF804EB7047BD48416900B545
:1006100021F0F00141F09001416100F08BF821F0F0
:10062000F00141F05001416100F084F821F0F00147
:1006300041F06001416100F07DF821F0F00141F0EE
:10064000A001416100F076F80AF1010A5DF804EBBF
:100650007047AB48416900B521F0F00141F0A001BD
:10066000416100F062F821F0F00141F06001416168
:1006700000F05BF821F0F00141F05001416100F021
:1006800054F821F0F00141F09001416100F04DF883
:10069000AAF1010A5DF804EB70479948416900B579
:1006A00021F4706141F41061416100F043F821F4DC
:1006B000706141F4A061416100F03CF821F4706187
:1006C00041F4C061416100F035F821F4706141F4FA
:1006D0002061416100F02EF80BF1010B5DF804EB95
:1006E00070478748416900B521F4706141F4206189
:1006F000416100F01AF821F4706141F4C061416178
:1007000000F013F821F4706141F4A061416100F040
:100710000CF821F4706141F41061416100F005F8BA
:10072000ABF1010B5DF804EB70474BF66872013AD0
:10073000FDD1704700B54BF66872013AFDD15DF806
:1007400004EB70474FF09040416921F4706141F42F
:100750008071416170474FF09040416921F47061B0
:1007600041F40071416170474FF09040416921F4BC
:10077000706141F44071416170472DE9684F6048F4
:10078000416921F00F01416100F089F800F087F81C
:1007900000F094F80E28F2D0054606F000064FF05F
:1007A0000806002E07D0304600F091F8012802D04C
:1007B0004FEA5606F5D100F072F800F07FF8A84233
:1007C00000D1F8E785F00E05012E05D0022E12D0DB
:1007D000042E1FD0082E2CD0082D04BF3325032251
:1007E00036D0042D04BF3225022231D0022D04BFA1
:1007F000312501222CD0082D04BF3625062227D012
:10080000042D04BF3525052222D0022D04BF342536
:1008100004221DD0082D04BF3925092218D0042D2B
:1008200004BF3825082213D0022D04BF3725072224
:100830000ED0082D04BF23250B2209D0042D04BFA0
:100840003025002204D0022D04BF2A250A22FFD021
:100850000A2A04BF2B482921012A04BF2A481E2145
:10086000022A04BF29481E21032A04BF28481E214A
:10087000BAF1000F04BF27481621BAF5C06F04BFB4
:1008800025481621BAF5406F04BF2448162104B547
:10089000FFF7C0FD04BCBDE8684F1046704700B5C7
:1008A00049F6AA22013AFDD15DF804EB704700B584
:1008B0001B4A013AFDD15DF804EB704700B51949B8
:1008C0000A6902F00E0210465DF804EB704700B5AD
:1008D0000B494A6922F00F0280F00F0042EA000241
:1008E0004A61FFF7DCFFFFF7E9FF03460E2B0CBF61
:1008F000002001205DF804EB7047000004E100E0F7
:10090000000800489C0000204200002060000020F9
:100910007E00002000000020160000202C00002097
:10092000999999000004004830B52F48416901F4B5
:100930000051B1F5005F3FD12B484FF400514161A8
:100940004FF090414A6904B4FFF717FF012808BF30
:1009500000230DD015D0022808BF4FF4C0630AD081
:100960000FD0032808BF4FF4406307D009D022D12D
:10097000FFF7E8FEEEE7FFF7EEFEF1E7FFF7F4FE24
:10098000F4E7FFF715FEFFF792FFFFF732FE04BC16
:10099000B2F5807F05D0B2F5007F05D0B2F5407F7B
:1009A00005D0FFF7CFFE07E0FFF7D5FE04E0FFF725
:1009B000DBFE01E000E00A28BDE830407047BAF1F4
:1009C000000F04BF09481621BAF5C06F04BF0848DC
:1009D0001621BAF5406F04BF0648162100B5FFF78F
:1009E00019FD5DF804EB7047000401400000002091
:1009F000160000202C000020417272697665642088
:100A000061742053746174696F6E20310A00417201
:100A100072697665642061742053746174696F6EC5
:100A200020320A0041727269766564206174205335
:100A3000746174696F6E20330A004D616E75616C6C
:100A4000206F7665727269646520746F20737461BB
:100A500074696F6E20310A004D616E75616C206F94
:100A60007665727269646520746F2073746174694D
:100A70006F6E20320A004D616E75616C206F766575
:100A8000727269646520746F2073746174696F6E2B
:100A900020330A00414C45525421212120454D4527
:100AA0005247454E435920535749544348204255D5
:100AB00054544F4E205055534845440A00000000FE
:0400000508000449A2
:00000001FF
